:020000040000FA
:060000000A128A11122809
:10000800FE00030EF7000408F8000A08F90083123E
:1000180003137F08FA000A168A119C2F0A128A1104
:100028001528831603130A168A11B9250A128A118C
:10003800E6000A168A11BA250A128A11E7000A167A
:100048008A11BB250A128A11E8000A168A11BC25F2
:100058000A128A11E9008313A0308400D2300A16EC
:100068008A11ED250A128A11FB01FC01FD018301A9
:100078000A128A118C2DFF0000308A007F0882073F
:1000880044280A128A15FE2E0A128A11FF2E0A1215
:100098008A1540298312031338088039FF007F0826
:1000A800C2003808BD003D07FF007F08C800B71F21
:1000B8005E285F28602848144808031964286528C2
:1000C8007428480A031D69286A2872280030B80075
:1000D8000030B7000030B6000030B500B7177C28F4
:1000E8000030B8000030B7000030B6000030B5006E
:1000F8003C088039FF007F08C2063C08BD003D0768
:10010800FF007F08C700BB1F8A288B288C2847144C
:100118004708031990289128A028470A031D952805
:1001280096289E280030BC000030BB000030BA0082
:100138000030B900BB17A8280030BC000030BB0055
:100148000030BA000030B90047080319AC28AD28C0
:10015800B2284808031DB128B228BB280030B800CF
:100168000030B7000030B6000030B500AE2B3508BF
:10017800FF007F08A0003B080A168A1142270A12CE
:100188008A11831203132108CE002008CD004D08E0
:10019800BD00BE01BF01C0014008C6003F08C50040
:1001A8003E08C4003D08C3004E08BD00BE01BF01A3
:1001B800C0014008CC003F08CB003E08CA003D08FB
:1001C800C9003608FF007F08A0003A080A168A11FD
:1001D80042270A128A11831203132108CE0020082D
:1001E800CD004D08BD00BE01BF01C0013D08C307D9
:1001F8003E0803110318013E03190329C4073F08E9
:1002080003110318013E03190A29C5074008031101
:100218000318013E03191129C6074E08BD00BE0187
:10022800BF01C0013D08C9073E0803110318013E7C
:1002380003191F29CA073F0803110318013E0319B0
:100248002629CB07400803110318013E03192D295D
:10025800CC073708FF007F08A00039080A168A1162
:1002680042270A128A11831203132108CE0020089C
:10027800CD004D08BD00BE01BF01C0013D08C30748
:100288003E0803110318013E03194B29C4073F0810
:1002980003110318013E03195229C5074008031129
:1002A8000318013E03195929C6074E08BD00BE01AF
:1002B800BF01C0013D08C9073E0803110318013EEC
:1002C80003196729CA073F0803110318013E0319D8
:1002D8006E29CB07400803110318013E031975293D
:1002E800CC070830BD000310C30DC40DC50DC60DE5
:1002F800BD0B77293608FF007F08A00039080A16C9
:100308008A1142270A128A11831203132108CE0088
:100318002008CD004D08BD004E08BE00BF01C00139
:100328003D08C3073E0803110318013E03199D2920
:10033800C4073F0803110318013E0319A429C50780
:10034800400803110318013E0319AB29C6073508F5
:10035800FF007F08A0003A080A168A1142270A12ED
:100368008A11831203132108CE002008CD004D08FE
:10037800BD004E08BE00BF01C0013D08C3073E08CE
:1003880003110318013E0319CA29C4073F080311C2
:100398000318013E0319D129C507400803110318A2
:1003A800013E0319D829C6070830BD000310C30D44
:1003B800C40DC50DC60DBD0BDA293508FF007F0831
:1003C800A00039080A168A1142270A128A118312D4
:1003D80003132108CE002008CD004D08BD004E08AB
:1003E800BE00BF01C0013D08C3073E080311031842
:1003F800013E0319002AC4073F0803110318013EF0
:100408000319072AC507400803110318013E0319F9
:100418000E2AC6073608FF007F08A0003B080A1608
:100428008A1142270A128A11831203132108CE0067
:100438002008CD004D08BD004E08BE00BF01C00118
:100448003D08C9073E0803110318013E03192D2A68
:10045800CA073F0803110318013E0319342ACB07C2
:10046800400803110318013E03193B2ACC0737083B
:10047800FF007F08A0003A080A168A1142270A12CC
:100488008A11831203132108CE002008CD004D08DD
:10049800BD004E08BE00BF01C0013D08C9073E08A7
:1004A80003110318013E03195A2ACA073F0803110A
:1004B8000318013E0319612ACB07400803110318EA
:1004C800013E0319682ACC073708FF007F08A000FF
:1004D8003B080A168A1142270A128A11831203134B
:1004E8002108CE002008CD004D08BD004E08BE00F2
:1004F800BF01C00108300310BD0DBE0DBF0DC00DFA
:10050800FF3E031D7F2A3D08C9073E080311031853
:10051800013E0319902ACA073F0803110318013E38
:100528000319972ACB07400803110318013E031942
:100538009E2ACC074308BD004408BE004508BF00FA
:100548004608C00018300310C00CBF0CBE0CBD0C10
:10055800FF3E031DA72A3D08C9073E0803110318DB
:10056800013E0319B82ACA073F0803110318013EC0
:100578000319BF2ACB07400803110318013E0319CA
:10058800C62ACC070830BD000310C30DC40DC50D25
:10059800C60DBD0BC82A48084707BD00BE01BE0DE1
:1005A8003D08823ECD003E080318013EFF3ECE00C6
:1005B800FA2A0130BD000310C90DCA0DCB0DCC0DB0
:1005C800BD0BDF2AC61FE92AEA2AEB2A49140130A3
:1005D800BD000310C30DC40DC50DC60DBD0BED2A1E
:1005E800FF30CD070318CE0AFF30CE07CB1FFD2AF8
:1005F800FE2ADD2AC701C61F022B032B1F2BFF3043
:100608004305BD00FF304405BE00FF304505BF006F
:100618007F304605C00040083F043E043D040319EE
:10062800162B172B1A2BC701C70A1F2B491C1D2B6A
:100638001E2B1F2B172B47080319232B242B552B55
:100648000130C907003003180130CA070030031809
:100658000130CB07003003180130CC074C1C352B78
:10066800362B552B4908BD004A08BE004B08BF0071
:100678004C08C0000130C100400DC00CBF0CBE0CBE
:10068800BD0CC10B402B4008CC003F08CB003E08F6
:10069800CA003D08C9000130CD070318CE0A003052
:1006A800CE074E08803AFF0080307F02031D5E2B84
:1006B800FF304D02031C612B622B6D2B7F308312A0
:1006C8000313CC008030CB000030CA000030C900D2
:1006D800A22B831203134E08803AFF0080307F025A
:1006E800031D782B01304D0203187B2B7C2B882BA4
:1006F800003083120313CC000030CB000030CA0056
:100708000030C900C201A22B831203134D08FF0059
:100718007F08C800FF30C905FF30CA057F30CB0508
:100728000030CC05481C992B9A2B9B2BCB174808DB
:10073800BD0003103D0CFF007F08CC004208FF00FD
:100748007F08CC044C08B8004B08B7004A08B6002C
:100758004908B50008008312031356088039FF00C2
:100768007F08E0005608D7005707FF007F08E7001A
:10077800D51FBF2BC02BC12B671467080319C52BC6
:10078800C62BD62B670A031DCA2BCB2BD32B0030C5
:10079800D6000030D5000030D4000030D300D51783
:1007A800D601DE2B0030D6000030D5000030D40052
:1007B8000030D30052088039FF007F08E006520855
:1007C800D7005707FF007F08E800D11FEC2BED2B5F
:1007D800EE2B681468080319F22BF32B032C680A14
:1007E800031DF72BF82B002C0030D2000030D1006D
:1007F8000030D0000030CF00D117D2010B2C0030D0
:10080800D2000030D1000030D0000030CF005208B4
:10081800510450044F04031D122C132C2C2C0030AF
:10082800D6000030D5000030D4000030D30080302E
:10083800D5047F30D6046008FF007F08D604560828
:10084800D2005508D1005408D0005308CF008B2D92
:100858006708031D302C312C3A2C0030D2000030B0
:10086800D1000030D0000030CF008B2D6708D700B2
:10087800D8015808DA0068085702D900031CDA03BF
:1008880059087F3EE1005A080318013E003EE20085
:100898005608DF005508DE005408DD005308DC0068
:1008A8000030D6000030D5000030D4000030D3002E
:1008B8000030E6000030E5000030E4000030E300DE
:1008C800E801B02C680803196A2C6B2C8B2C0130BA
:1008D800D7000310DC0DDD0DDE0DDF0DD70B6D2C01
:1008E8000130D7000310D30DD40DD50DD60DD70B7D
:1008F800762CE61F802C812C822C53140130D700D3
:100908000310E30DE40DE50DE60DD70B842C52081A
:100918005F02031D992C51085E02031D992C500893
:100928005D02031D992C4F085C02031C9C2C9D2C16
:10093800AC2C66174F08DC025008031C500FDD0270
:100948005108031C510FDE025208031C520FDF022C
:100958000130FF007F08E8071A306802031CB52C35
:10096800B62C662C5F085E045D045C040319BD2C7C
:10097800BE2CDD2C6314DD2C0130D7000310D30D01
:10098800D40DD50DD60DD70BC22CE61FCC2CCD2CF3
:10099800CE2C53140130D7000310E30DE40DE50D00
:1009A800E60DD70BD02CFF30E1070318E20AFF3021
:1009B800E207D51FE02CE12CC02CE801E61FE52C4E
:1009C800E62C022DFF306305D700FF306405D80000
:1009D800FF306505D9007F306605DA005A085904EA
:1009E800580457040319F92CFA2CFD2CE801E80ADD
:1009F800022D531C002D012D022DFA2C6808031915
:100A0800062D072D382D0130D3070030031801308B
:100A1800D407003003180130D5070030031801301F
:100A2800D607561C182D192D382D5308D7005408F1
:100A3800D8005508D9005608DA000130DB005A0DF5
:100A4800DA0CD90CD80CD70CDB0B232D5A08D6009E
:100A58005908D5005808D4005708D3000130E107D9
:100A68000318E20A0030E2076208803AFF0080308B
:100A78007F02031D412DFF306102031C442D452DCB
:100A8800532DFF3083120313E1000030E2000030E1
:100A9800D6000030D5000030D4000030D3008312D7
:100AA80003136208803AFF0080307F02031D5E2D29
:100AB800013061020318612D622D6F2D831203131B
:100AC800E101E2010030D6000030D5000030D4004A
:100AD8000030D300E001831203136108FF007F0890
:100AE800E700671C782D792D7B2DD5177F2D7F305A
:100AF800FF007F08D5056708D7000310570CFF00D3
:100B08007F08D6006008FF007F08D604232C080061
:100B18000A168A110D270A128A110A168A11CE2777
:100B28000A128A11803083120313A2000030A30036
:100B38000A128A15F7200A128A11BC3A0319A52D40
:100B4800A62D372E003083160313B5000030B400ED
:100B58000030B3003430B2003508340433043204B2
:100B6800031DB72DB82DB92DE02D000001308316D7
:100B78000313E2000030E3000030E4000030E50039
:100B88006208B2026308031C630FCB2DCC2DB3029D
:100B98006408031C640FD12DD22DB4026508031C10
:100BA800650FD72DD82DB502350834043304320427
:100BB800031DDF2DE02DB92D003083120313A20091
:100BC800A3003C30FF007F08A4000A128A151220F7
:100BD8000A128A11003083160313B5000030B400DE
:100BE8000030B3003430B200350834043304320422
:100BF800031DFF2D002E012E282E00000130831624
:100C08000313E2000030E3000030E4000030E500A8
:100C18006208B2026308031C630F132E142EB3027A
:100C28006408031C640F192E1A2EB4026508031CED
:100C3800650F1F2E202EB502350834043304320404
:100C4800031D272E282E012E803083120313A200A5
:100C58000030A300BC30FF007F08A4000A128A15E8
:100C680012200A128A11003083160313B5000030CF
:100C7800B4000030B3003430B20035083404330413
:100C88003204031D482E492E4A2E712E00000130D1
:100C980083160313E2000030E3000030E400003064
:100CA800E5006208B2026308031C630F5C2E5D2E28
:100CB800B3026408031C640F622E632EB402650835
:100CC800031C650F682E692EB502350834043304F9
:100CD8003204031D702E712E4A2E00308312031326
:100CE800A200A3000A128A15F7200A128A11FF002F
:100CF8007F0883160313C6000030B5000030B40027
:100D08000030B3003430B200350834043304320400
:100D1800031D8F2E902E912EB82E000001308316C1
:100D28000313E2000030E3000030E4000030E50087
:100D38006208B2026308031C630FA32EA42EB30239
:100D48006408031C640FA92EAA2EB4026508031CAC
:100D5800650FAF2EB02EB5023508340433043204C3
:100D6800031DB72EB82E912E003083120313A30053
:100D7800A4000430A5000030A60004300A128A1529
:100D8800E0230A128A11003083120313A300A4007F
:100D98001430A5000030A60001300A128A15E0239D
:100DA8000A128A11003083120313A300A400013031
:100DB800A5000030A60007300A128A15E0230A129F
:100DC8008A110A168A11A7250A128A118316031393
:100DD8004708031DF02EF12EF62E0A168A11F52566
:100DE8000A128A110A128A1500230A128A11EA2E97
:100DF8000A128A1112280A128A11BD270A128A11A8
:100E08000A128A157B200A128A11A82F7D0303195A
:100E18000E2F0F2F142F7C03031D132F142FBC2FFD
:100E28000230FF007F0883160313E800FD01FC0170
:100E3800BC2F7D08031D212F222F372F7C08031D6F
:100E4800262F272F372F0130FF007F088316031323
:100E5800B807FA303806031D322F332F912FE801D7
:100E6800E80AB801BC2F7D03031D3B2F3C2F432FFD
:100E78000230FF007F0883160313B900B8017C0312
:100E8800031D472F482F912F0430FF007F0883163A
:100E98000313B900B801912FFD010530FF007F0849
:100EA80083160313B9004608803A353E031C5D2FAC
:100EB8005E2F632F4B30FF007F08C600672F053079
:100EC800FF007F08C607003083120313A200A300A7
:100ED800831603134608FF007F0883120313A40038
:100EE8000A128A1512200A128A11BC2FFC01053039
:100EF800FF007F0883160313B9004608803A5C3E5A
:100F08000318872F882F892F5E2FFB30FF007F085B
:100F1800C607672FFD01FC01BC2F83160313390890
:100F280083120313A500A6012608003A03199D2F72
:100F3800BC2F2508023A0319502F063A03197A2FB5
:100F4800013A03198E2FBC2F8316031368088312E6
:100F58000313A500A6012608003A0319B42FBC2FD5
:100F68002508013A03190A2F033A03191D2FBC2F2C
:100F780008008316031342080319C32FC42FC72F71
:100F88000130C202F22F831203130608A0000230B8
:100F98000310A00CFF3E031DCC2F2018D42FD52FF3
:100FA800EE2F0130FF007F0883160313C4070330B8
:100FB8004402031CE02FE12FEC2F0230FF007F08D2
:100FC800C400FD01FD0A1430FF007F08C200F22FA3
:100FD800FD01F22F83160313C401FD010800073039
:100FE800FF007F08831603138604FD01FC01C4017A
:080FF800C201C301C1010800A0
:10100200831203138E018F01FD30FF007F089005CC
:10101200CF30FF007F089005CF30FF007F0890059A
:1010220008000A168A1133260A128A151D280A1682
:101032008A1127260A128A15A0300A168A11272732
:101042000A128A15003A031D272828281828831215
:10105200031323080A168A1127270A128A158312F4
:10106200031322080A168A1127270A128A158312E5
:10107200031324080A168A1127270A128A150A1648
:101082008A113F260A128A15080083120313AC0044
:10109200AA01AB01AD012D082C07A7002708840087
:1010A20083130008A800A9012808AA070318AB0A9D
:1010B2002908AB070130FF007F08AD070A302D0277
:1010C200031C642865284C280A30A0000030A100C7
:1010D2002B08A3002A08A2000A128A15B1200A12BC
:1010E2008A15831203132008FF007F088316031357
:1010F200BB000800831603134108031981288228C4
:1011020085280130C102B028831203130608A0000B
:1011120001300310A00CFF3E031D8A2820189228DC
:101122009328AC280130FF007F0883160313C307FE
:1011320003304302031C9E289F28AA280230FF0086
:101142007F08C300FC01FC0A1430FF007F08C100C5
:10115200B028FC01B02883160313C301FC01080068
:1011620083120313A401A501200821040319BA283C
:10117200BB28F228A601A60AC92801300310A00D37
:10118200A10DFF3E031DBF280130FF007F08A60707
:10119200A11FCC28CD28BE2801300310A40DA50D17
:1011A200FF3E031DCE2821082302031DDA28200852
:1011B2002202031CDD28DE28E5282008A2022108DD
:1011C200031CA303A302241401300310A10CA00CDE
:1011D200FF3E031DE6280130A602031DF128F22876
:1011E200CD282508A1002408A00008000A168A11AB
:1011F20033260A128A1502290A168A1127260A128A
:101202008A15A0300A168A1127270A128A15003A6F
:10121200031D0C290D29FD288312031323080A1626
:101222008A1127270A128A158312031322080A1623
:101232008A1127270A128A150A168A1127260A12E4
:101242008A15A1300A168A1127270A128A150A1648
:101252008A11DF260A128A15FF007F088312031300
:10126200A4000A168A1188260A128A150A168A11F9
:101272003F260A128A1583120313240808007829CC
:10128200831603133B080A128A158D210A128A1546
:101292008C290130FF007F0883160313B7077830CB
:1012A2003706031D552956296129360803195A297B
:1012B2005C2901305D290030FF007F08B600B701CC
:1012C2003603031D652966296D2946080A128A1507
:1012D2008D210A128A158C293608031D712972295B
:1012E2008C290A168A1111260A128A158C2983164C
:1012F2000313680883120313AB00AC012C08003AF5
:10130200031984298C292B08013A03194129033A2C
:1013120003194A298C29080083120313AA00643096
:101322002A02031895299629DB290A30A0000030E9
:10133200A1002A08A800A9012808A2002908A300E0
:101342000A128A1597220A128A1583120313200899
:10135200013E84000A168A1100200A128A15FF0033
:101362007F0883160313E7000A3083120313A000D9
:101372000030A1002A08A800A9012808A200290813
:10138200A3000A128A15DC210A128A15831203139A
:101392002008013E84000A168A1100200A128A15CA
:1013A200FF007F0883160313E6000A168A116B27D3
:1013B2000A128A15080083120313A501A31FE2294A
:1013C200E329EA29A209A309A20A0319A30AA5018A
:1013D200A50AA11FED29EE29F329A009A109A00A56
:1013E2000319A10A200821040319F829F929282A36
:1013F200A401A40A072A01300310A00DA10DFF3E8B
:10140200031DFD290130FF007F08A407A11F0A2A3E
:101412000B2AFC2921082302031D112A200822027B
:10142200031C142A152A1B2A2008A2022108031CC5
:10143200A303A30201300310A10CA00CFF3E031D65
:101442001C2A0130A402031D272A282A0B2A250858
:1014520003192C2A2D2A322AA209A309A20A031946
:10146200A30A2308A1002208A00008008312031384
:10147200A3000630FF007F08A00023080A168A1185
:10148200F6260A128A15A03E840083130008031D63
:101492004B2A4C2A522A0230FF007F08831603137C
:1014A200BF000630FF007F0883120313A000230849
:1014B2000A168A11F6260A128A15A03E84008313A0
:1014C20080010630FF007F0883120313A000230867
:1014D2000A168A11F6260A128A15A13E840083137F
:1014E2008001840A80010630FF007F088312031303
:1014F200A00023080A168A11F6260A128A15A33EAC
:10150200840083138001840A80010630FF007F0873
:1015120083120313A00023080A168A11F6260A1260
:101522008A15A53E840083138001080083120313E9
:10153200A501A11F9D2A9E2AA52AA009A109A00AE8
:101542000319A10AA501A50AA31FA82AA92AB22A3A
:10155200A209A309A20A0319A30A0130FF007F0806
:10156200A506A601A701200821040319B92ABA2A4F
:10157200F12AA401A40AC82A01300310A00DA10D6A
:10158200FF3E031DBE2A0130FF007F08A407A11FF2
:10159200CB2ACC2ABD2A01300310A60DA70DFF3E8F
:1015A200031DCD2A21082302031DD92A2008220265
:1015B200031CDC2ADD2AE42A2008A2022108031CDB
:1015C200A303A302261401300310A10CA00CFF3EBA
:1015D200031DE52A0130A402031DF02AF12ACC2AB8
:1015E20025080319F52AF62AFB2AA609A709A60A3D
:1015F2000319A70A2708A1002608A00008008312E1
:101602000313EF010630FF007F08A0006F080A16DF
:101612008A11F6260A128A15A53E84008313000851
:101622000319142B152B5F2B0630FF007F08831242
:101632000313A0006F080A168A11F6260A128A15E9
:10164200A03E8400831300080A128A113F200A1266
:101652008A150630FF007F0883120313A0006F086B
:101662000A168A11F6260A128A15A53E840001304E
:10167200831380020630FF007F0883120313A00049
:101682006F080A168A11F6260A128A15A33E8400EA
:101692008313000883160313E000840A0008E100A4
:1016A20060086104031D562B572B5F2B8312031313
:1016B2006F080A128A1537220A128A150130FF00B2
:1016C2007F0883120313EF0703306F02031C6A2B98
:1016D2006B2B032B080083120313A6002608A2001B
:1016E20002300310A20DFF3E031D722B0310220DC8
:1016F200FF007F089F04003083160313B5000030FB
:10170200B4000030B3000130B200350834043304B1
:101712003204031D8D2B8E2B8F2BC82B0000013022
:1017220083120313A2000030A3000030A400003093
:10173200A500220883160313B2028312031323089F
:10174200031C230FA52BA82B83160313B3028312AA
:1017520003132408031C240FAF2BB22B831603138D
:10176200B402831203132508031C250FB92BBC2BCB
:1017720083160313B502831203138316031335086A
:10178200340433043204031DC72BC82B8F2B83125E
:1017920003131F151F08A20002300310A20CFF3E04
:1017A200031DCE2B2218D62BD72BCB2B1E08A10024
:1017B200831603131E0883120313A000080083126A
:1017C2000313A700A801E92B0130FF007F08A80737
:1017D2000630FF007F08A00028080A168A11F626A4
:1017E2000A128A15A03E8400831300080319FA2BFB
:1017F200FB2B032C0330831203132802031C022C3D
:10180200032CE52B0330831203132806031D0A2C35
:101812000B2C102C83160313BF01BF0A592C063060
:10182200FF007F08A00028080A168A11F6260A126D
:101832008A15A03E8400831203132708FF007F0845
:10184200831380000630FF007F08A00028080A16D4
:101852008A11F6260A128A15A13E84008312031306
:10186200230883138000840A240880000630FF00C6
:101872007F08A00028080A168A11F6260A128A157D
:10188200A33E840083120313250883138000840A75
:10189200260880000630FF007F08A00028080A16EC
:1018A2008A11F6260A128A15A53E84008313800146
:1018B20008000310831203136B0D6C0DFF007F08E9
:1018C200EE006E08031D662C672C702C0030EC00B5
:1018D2000030EB000030EA000030E900ED2C69082E
:1018E20083160313D200831203136A0883160313A9
:1018F200D300831203136B0883160313D4008312DD
:1019020003136C0883160313D5001F300310D50C84
:10191200D40CD30CD20CFF3E031D872C5208FF00BF
:101922007F0883120313ED00EB17FF30E905FF3048
:10193200EA05FF30EB050030EC059630EE02EE1FB3
:10194200A32CA42CBE2C6E08803A973E0318AA2C16
:10195200AB2CAC2C672C01300310EC0CEB0CEA0C1A
:10196200E90CFF3E031DAD2C0130FF007F08EE079E
:10197200031DBC2CBD2CAC2CDD2C20306E02031CB4
:10198200C32CC42CD82C672C013083160313D2002D
:10199200031083120313E90DEA0DEB0DEC0D831610
:1019A2000313D20BC92C013083120313EE026E080B
:1019B200031DDC2CDD2CC52C6D080319E12CE22C57
:1019C200ED2CE909EA09EB09EC09E90A0319EA0A2B
:1019D2000319EB0A0319EC0A0800DA308312031325
:1019E2008F00E4308E00FE30FF007F088C05F50189
:1019F2000630FF007F08F00075080A168A11B52626
:101A02000A128A15A03E84008313000803190A2DC6
:101A12000B2D862D0630FF007F08F00075080A1690
:101A22008A11B5260A128A15A13E84008313000882
:101A3200F300840A0008F40073087404031D222DC5
:101A4200232D712D0630FF007F08F00075080A165D
:101A52008A11B5260A128A15A53E84000130FF00BC
:101A62007F08831380070630FF007F08F0007508A7
:101A72000A168A11B5260A128A15A33E8400831318
:101A82000008F300840A0008F400730874040319C0
:101A92004B2D4C2D862D0630FF007F08F000750877
:101AA2000A168A11B5260A128A15A33E84008313E8
:101AB2000008F300840A0008F4000630FF007F08E3
:101AC200F00075080A168A11B5260A128A15A13E77
:101AD2008400730883138000840A74088000862DB2
:101AE2000630FF007F08F00075080A168A11B52635
:101AF2000A128A15A13E8400013083138002840FEA
:101B02000030031C8003800284030130FF007F0841
:101B1200F50703307502031C8F2D902DF92C080058
:101B220002300A128A156C230A128A1583120313D1
:101B3200200883160313D600831203132108831689
:101B42000313D700D801D901590883120313AA003D
:101B520083160313580883120313A9008316031371
:101B6200570883120313A80083160313560883121F
:101B72000313A70000300A128A1542260A128A1598
:101B8200831203132A08BC002908BB002808BA00E4
:101B92002708B9004030B800A030B7000030B600C6
:101BA2000030B5000A128A114E200A128A158312D9
:101BB20003133808D6003708D5003608D400350894
:101BC200D3004430D2007F30D100C030D00000308A
:101BD200CF000A128A11AF230A128A158312031345
:101BE200520883160313DD00831203135108831670
:101BF2000313DC0083120313500883160313DB0064
:101C0200831203134F0883160313DA005D0883124D
:101C12000313BC00831603135C0883120313BB0077
:101C2200831603135B0883120313BA00831603138C
:101C32005A0883120313B9004230B800C830B70003
:101C42000030B6000030B5000A128A114E200A1286
:101C52008A15831203133808EC003708EB003608A4
:101C6200EA003508E9000A128A155A240A128A156E
:101C7200831203136908FF007F0883160313C00051
:101C8200080083120313AF002F080319492E4A2EAE
:101C92005E2EAA1F4D2E4E2E5E2E2709B100280958
:101CA200B2002909B3002A09B400B10A0319B20A21
:101CB2000319B30A0319B40A662E2A08B4002908C4
:101CC200B3002808B2002708B1002A082904280412
:101CD2002704031D6D2E6E2E772E0030AA000030D1
:101CE200A9000030A8000030A700FD2E9630FF00AA
:101CF2007F08B000892E0130FF007F08B007013055
:101D02000310B40CB30CB20CB10CFF3E031D812EB8
:101D1200FE303405031D8E2E8F2E7C2EAB2E01300D
:101D2200FF007F08B0070130B1070030031801300F
:101D3200B207003003180130B30700300318013036
:101D4200B40701300310B40CB30CB20CB10CFF3E5B
:101D5200031DA32EFF303405031DB02EB12E902E8D
:101D6200BD2E0130B0020130AB000310B10DB20D37
:101D7200B30DB40DAB0BB62EB31BC02EC12EC72EA6
:101D8200023030020318C62EC72EB22E3018CA2EC9
:101D9200CB2ED32EFF30B105FF30B2057F30B30515
:101DA200FF30B4050310B00C3008AB00AC01AD013C
:101DB200AE0118300310AB0DAC0DAD0DAE0DFF3EF4
:101DC200031DDB2E2B08B1042C08B2042D08B3042A
:101DD2002E08B4042F080319EF2EF02EF52EAA1F99
:101DE200F32EF42EF52EB4173408AA003308A900F6
:101DF2003208A8003108A7000800ED2F0A168A1140
:101E0200DE250A128A150A168A11D7250A128A15A0
:101E1200FF2F0A128A1591250A128A1583160313B7
:101E22004008FF003A08C83E84007F088313800000
:101E32000130FF007F08BA070A303A06031D222F3D
:101E4200232F2E2FBA01C8300A128A1546200A12F1
:101E52008A1583160313BD01BD0A3D080319322FEB
:101E6200332FFF2FD92F0A168A11DE250A128A155F
:101E72000A168A11D7250A128A150A168A11C92545
:101E82000A128A158316031346083B02DE00DF019D
:101E9200031CDF03BB1F4E2FDF0383160313C61F72
:101EA200532FDF0A831603135F08803AFF007F3047
:101EB2007F02031D5E2FFB305E020318612F622F2B
:101EC200672F83160313BE01BE0AFF2F0230FF00E5
:101ED2007F0883160313BE00FF2F0A168A11D72527
:101EE2000A128A150A168A11B1250A128A150130B8
:101EF200FF007F0883160313BC070A303C06031D4C
:101F0200832F842F8C2F0A168A11D0250A128A1544
:101F120083160313BC0146083B02DE00DF01031CEB
:101F2200DF03BB1F952FDF0383160313C61F9A2FF0
:101F3200DF0A831603135F08803AFF0080307F02B6
:101F4200031DA52F05305E02031CA82FA92FEC2F1D
:101F5200672F0A168A11DE250A128A150A168A11B5
:101F6200AD250A128A150A168A11A9250A128A159E
:101F72008316031346083B02DE00DF01031CDF0366
:101F8200BB1FC42FDF0383160313C61FC92FDF0A2B
:101F9200831603135F08803AFF007F307F02031D20
:101FA200D42FFB305E020318D72FD82FEC2F622FCD
:101FB2003E08DE00DF015F08003A0319E12FFF2F20
:101FC2005E08003A0319342F013A03196E2F033ABF
:101FD2000319AA2FFF2FFF2F831603136808DE00B1
:101FE200DF015F08003A0319F72FFF2F5E08013A5D
:101FF20003190A2F033A0319FF2EFF2F080010308E
:102002008A000408840A820700343F3406345B34B1
:102012004F3466346D347D3407347F346F34BF34CB
:102022008634DB34CF34E634ED34FD348734FF3488
:02203200EF3489
:102B4E008B170800831203138617080083120313D2
:102B5E000715080083120313871608008312031348
:102B6E00101408003F343F340134BC340A168A1165
:102B7E00E5250A168A110800FD30FF007F088B0537
:102B8E000B1608007F30FF007F08831203138605A3
:102B9E0008008030FF007F088312031386060800AA
:102BAE00FB30FF007F088312031387050800DF3018
:102BBE00FF007F0883120313870508008316031393
:102BCE008801CF30FF007F08850508006400800172
:102BDE00840A0406031900340406EE2D831203132F
:102BEE00850186018701880189016300080083122F
:102BFE00031305150A168A11A2260A168A11080051
:102C0E00831603130117FD30FF007F088B050B178A
:102C1E008B170800DF30FF007F0883120313850532
:102C2E00EF30FF007F08850508000A128A11F3278E
:102C3E000A168A110A168A1195260A168A11080092
:102C4E000A168A117B260A168A118316031391140B
:102C5E00831203138C1108000A168A117B260A169A
:102C6E008A11831603131114831203138C11080097
:102C7E000A168A117B260A168A118316031311155A
:102C8E00831203138C110800FE30FF007F0883129D
:102C9E0003138C05831603130C140B178B170800E4
:102CAE007F30FF007F088316031386050A168A11EC
:102CBE00C9250A168A110800FB30FF007F0883160B
:102CCE00031387050A168A11D7250A168A110800DA
:102CDE00DF30FF007F088316031387050A168A115B
:102CEE00DE250A168A110800831603131419802E86
:102CFE00812E7B2E11081F39031D862E872E7B2ECB
:102D0E00080083160313911611160A168A117B26D4
:102D1E000A168A11831203138C11080028308312AD
:102D2E00031394008316031391019401133093003F
:102D3E00871507160800831203139F0183160313CA
:102D4E009F01831203131F17831603131F1783127A
:102D5E0003131F14831603139F170800F200F101CB
:102D6E00721CBA2EBB2EBF2E7008FF007F08F10713
:102D7E000310F00D0310F20C7208031DC72EC82E9F
:102D8E00B72E710808000A168A1157260A168A11DC
:102D9E000A168A116F260A168A110A168A116326D6
:102DAE000A168A110A168A11FE250A168A110800B9
:102DBE000A168A117B260A168A1183160313911599
:102DCE0083128C1DEB2EEC2EE72E8C110A168A1117
:102DDE007B260A168A118312031313080800831226
:102DEE000313A200A101221CFD2EFE2E022F20088D
:102DFE00FF007F08A1070310A00D0310A20C2208EC
:102E0E00031D0A2F0B2FFA2E210808000A168A110D
:102E1E001C260A168A110A168A11CA260A168A1141
:102E2E000A168A11BD250A168A110A168A11072654
:102E3E000A168A110A168A11C3250A168A11080063
:102E4E0083120313A1000A168A117B260A168A1111
:102E5E0083120313210893008C1D362F372F332F27
:102E6E008C1183160313110E83120313A000A00CF2
:102E7E00200C0139080083120313A800A401A50138
:102E8E002008A200A3012208A6002308A700281CE0
:102E9E00512F522F582F2608A4070318A50A2708CA
:102EAE00A50701300310A60DA70DFF3E031D592FD8
:102EBE000310A80C2808031D652F662F4E2F25081A
:102ECE00A1002408A00008000130FF007F08FB07C6
:102EDE0002307B06031D742F752F832FFB01832F6A
:102EEE008516EF30FF007F088505952F0516DF301C
:102EFE00FF007F088505952F7B0883120313A00022
:102F0E00A1012108003A03198D2F952F2008003AB0
:102F1E000319772F013A03197D2F952F7B08E63E73
:102F2E00840083130008880008000C1C9F2FA02F1C
:102F3E00A52F0A128A15EE240A168A110B08F6001E
:102F4E0001300310F60CFF3E031DA82F761CB02F88
:102F5E00B12FC12F8316031347080319B72FB92FAB
:102F6E000130BA2F0030FF007F08C700FD30FF0090
:102F7E007F088B057A0883120313FF0079088A00F5
:102F8E0078088400770E8300FE0E7E0E09008312F1
:102F9E000313A40124080A128A1537220A168A116D
:102FAE000130FF007F0883120313A40703302402AD
:102FBE00031CE22FE32FD12F83160313BF010A1236
:102FCE008A1501200A168A110A168A114B260A162C
:102FDE008A117F30FF007F088B05D83083120313D0
:102FEE008F00F0308E000A168A11B5250A168A1146
:022FFE000800C9
:02400E00FB3F76
:00000001FF
